:060000000A128A1100291A
:10000800F000030EF1000B1810200B193120710EAF
:100018008300F00E700E090003138312061CF20A07
:1000280072088500861CF20372088500F8011E20FC
:100038000B100800F50A7208643CF80703181F281B
:10004800F503F40A72080A3C03182528F403F30A96
:100058007208013C031D2B28080003138312FB3090
:1000680081000B11890121183D2825088700891472
:10007800412824088700091541280130A1060800F5
:1002000023211A2148214F2142210313831272080E
:10021000A0000C211321072920080F39A200200E6D
:100220000F39A300080022080022A400230800229E
:10023000A5000800031383161614961403138312E3
:1002400006080B10080003178316880189010313A1
:10025000831606148614031383168701850109107B
:100260008910091103138316811303138316950153
:1002700015149514031383128501870189018601E2
:10028000F20108008B178B150B108B160B11080051
:10029000031383160F140F178F120F120800031386
:1002A0008316811281110115811401140313831225
:0C02B00003138312FB3081000B110800C7
:100400008A018A140F3982073F3406345B344F3433
:1004100066346D347D3407347F346F3477347C3404
:0804200039345E347934713483
:04400E00D420FF3F7C
:00000001FF
